:060000000201000201569E
:03000B000551326A
:02001B001F3292
:0F0100007580FF759000755100758922758AFE14
:0F010F00758CFE758DD0758BD0D2A9D2ABD2AFC7
:10011E00D288D28AD28C80003090FDC28C120136E9
:0E012E0012015012015580F0E551F550780491
:0E013C00120163E551540790017493F4F580AD
:0F014A00120159D8ED22D2A880FC2222E5903272
:0F0159007F01D28EBF00FDC28E22E5517003F4EC
:10016800F55154B8A2D0E55133F5512201020408E3
:040178001020408093
:00000001FF
